{
  "contractName": "Wakeup",
  "abi": [
    {
      "inputs": [],
      "stateMutability": "nonpayable",
      "type": "constructor"
    },
    {
      "inputs": [
        {
          "internalType": "uint256",
          "name": "_wakeupTime",
          "type": "uint256"
        }
      ],
      "name": "setWakeupTime",
      "outputs": [],
      "stateMutability": "payable",
      "type": "function",
      "payable": true
    },
    {
      "inputs": [],
      "name": "incrementContDays",
      "outputs": [],
      "stateMutability": "nonpayable",
      "type": "function"
    },
    {
      "inputs": [],
      "name": "receiveReward",
      "outputs": [],
      "stateMutability": "nonpayable",
      "type": "function"
    },
    {
      "inputs": [],
      "name": "withdraw",
      "outputs": [],
      "stateMutability": "nonpayable",
      "type": "function"
    },
    {
      "inputs": [],
      "name": "getBalance",
      "outputs": [
        {
          "internalType": "uint256",
          "name": "",
          "type": "uint256"
        }
      ],
      "stateMutability": "view",
      "type": "function",
      "constant": true
    },
    {
      "inputs": [
        {
          "internalType": "address",
          "name": "_user",
          "type": "address"
        }
      ],
      "name": "getUserInfo",
      "outputs": [
        {
          "internalType": "uint256",
          "name": "",
          "type": "uint256"
        },
        {
          "internalType": "uint256",
          "name": "",
          "type": "uint256"
        },
        {
          "internalType": "uint256",
          "name": "",
          "type": "uint256"
        },
        {
          "internalType": "uint256",
          "name": "",
          "type": "uint256"
        },
        {
          "internalType": "bool",
          "name": "",
          "type": "bool"
        },
        {
          "internalType": "bool",
          "name": "",
          "type": "bool"
        }
      ],
      "stateMutability": "view",
      "type": "function",
      "constant": true
    },
    {
      "inputs": [
        {
          "internalType": "address",
          "name": "_owner",
          "type": "address"
        }
      ],
      "name": "getWakeupTime",
      "outputs": [
        {
          "internalType": "uint256",
          "name": "",
          "type": "uint256"
        }
      ],
      "stateMutability": "view",
      "type": "function",
      "constant": true
    },
    {
      "inputs": [
        {
          "internalType": "address",
          "name": "_owner",
          "type": "address"
        }
      ],
      "name": "getWakeupTimeTo",
      "outputs": [
        {
          "internalType": "uint256",
          "name": "",
          "type": "uint256"
        }
      ],
      "stateMutability": "view",
      "type": "function",
      "constant": true
    },
    {
      "inputs": [
        {
          "internalType": "address",
          "name": "_owner",
          "type": "address"
        }
      ],
      "name": "getLastUpdated",
      "outputs": [
        {
          "internalType": "uint256",
          "name": "",
          "type": "uint256"
        }
      ],
      "stateMutability": "view",
      "type": "function",
      "constant": true
    },
    {
      "inputs": [
        {
          "internalType": "address",
          "name": "_owner",
          "type": "address"
        }
      ],
      "name": "getContDays",
      "outputs": [
        {
          "internalType": "uint256",
          "name": "",
          "type": "uint256"
        }
      ],
      "stateMutability": "view",
      "type": "function",
      "constant": true
    },
    {
      "inputs": [
        {
          "internalType": "address",
          "name": "_owner",
          "type": "address"
        }
      ],
      "name": "getDepositFlag",
      "outputs": [
        {
          "internalType": "bool",
          "name": "",
          "type": "bool"
        }
      ],
      "stateMutability": "view",
      "type": "function",
      "constant": true
    },
    {
      "inputs": [
        {
          "internalType": "address",
          "name": "_owner",
          "type": "address"
        }
      ],
      "name": "getRewardFlag",
      "outputs": [
        {
          "internalType": "bool",
          "name": "",
          "type": "bool"
        }
      ],
      "stateMutability": "view",
      "type": "function",
      "constant": true
    }
  ],
  "bytecode": "0x608060405234801561001057600080fd5b50336000806101000a81548173ffffffffffffffffffffffffffffffffffffffff021916908373ffffffffffffffffffffffffffffffffffffffff160217905550611806806100606000396000f3fe6080604052600436106100a75760003560e01c8063ae7b48ae11610064578063ae7b48ae146101c6578063c4b8b92914610203578063cdb9296a14610240578063d1212d7f1461027d578063ef12969b14610294578063ff3d9e4f146102d1576100a7565b806312065fe0146100ac5780631c8f1be1146100d75780633ccfd60b1461011457806343365cf11461012b5780636386c1c7146101475780639e26493c14610189575b600080fd5b3480156100b857600080fd5b506100c16102e8565b6040516100ce91906110c4565b60405180910390f35b3480156100e357600080fd5b506100fe60048036038101906100f99190611142565b6102f0565b60405161010b91906110c4565b60405180910390f35b34801561012057600080fd5b5061012961033c565b005b6101456004803603810190610140919061119b565b61047a565b005b34801561015357600080fd5b5061016e60048036038101906101699190611142565b610647565b604051610180969594939291906111e3565b60405180910390f35b34801561019557600080fd5b506101b060048036038101906101ab9190611142565b610811565b6040516101bd91906110c4565b60405180910390f35b3480156101d257600080fd5b506101ed60048036038101906101e89190611142565b61085d565b6040516101fa9190611244565b60405180910390f35b34801561020f57600080fd5b5061022a60048036038101906102259190611142565b6108b6565b60405161023791906110c4565b60405180910390f35b34801561024c57600080fd5b5061026760048036038101906102629190611142565b610902565b6040516102749190611244565b60405180910390f35b34801561028957600080fd5b5061029261095b565b005b3480156102a057600080fd5b506102bb60048036038101906102b69190611142565b610ead565b6040516102c891906110c4565b60405180910390f35b3480156102dd57600080fd5b506102e6610ef9565b005b600047905090565b6000600160008373ffffffffffffffffffffffffffffffffffffffff1673ffffffffffffffffffffffffffffffffffffffff168152602001908152602001600020600301549050919050565b60008054906101000a900473ffffffffffffffffffffffffffffffffffffffff1673ffffffffffffffffffffffffffffffffffffffff163373ffffffffffffffffffffffffffffffffffffffff16146103ca576040517f08c379a00000000000000000000000000000000000000000000000000000000081526004016103c1906112bc565b60405180910390fd5b6363b0cd00421015610411576040517f08c379a00000000000000000000000000000000000000000000000000000000081526004016104089061134e565b60405180910390fd5b60008054906101000a900473ffffffffffffffffffffffffffffffffffffffff1673ffffffffffffffffffffffffffffffffffffffff166108fc479081150290604051600060405180830381858888f19350505050158015610477573d6000803e3d6000fd5b50565b60001515600160003373ffffffffffffffffffffffffffffffffffffffff1673ffffffffffffffffffffffffffffffffffffffff16815260200190815260200160002060040160019054906101000a900460ff16151514610510576040517f08c379a0000000000000000000000000000000000000000000000000000000008152600401610507906113ba565b60405180910390fd5b662386f26fc100003414610559576040517f08c379a000000000000000000000000000000000000000000000000000000000815260040161055090611426565b60405180910390fd5b6040518060c00160405280828152602001610384836105789190611475565b81526020014281526020016000815260200160011515815260200160001515815250600160003373ffffffffffffffffffffffffffffffffffffffff1673ffffffffffffffffffffffffffffffffffffffff1681526020019081526020016000206000820151816000015560208201518160010155604082015181600201556060820151816003015560808201518160040160006101000a81548160ff02191690831515021790555060a08201518160040160016101000a81548160ff02191690831515021790555090505050565b600080600080600080600160008873ffffffffffffffffffffffffffffffffffffffff1673ffffffffffffffffffffffffffffffffffffffff16815260200190815260200160002060000154600160008973ffffffffffffffffffffffffffffffffffffffff1673ffffffffffffffffffffffffffffffffffffffff16815260200190815260200160002060010154600160008a73ffffffffffffffffffffffffffffffffffffffff1673ffffffffffffffffffffffffffffffffffffffff16815260200190815260200160002060020154600160008b73ffffffffffffffffffffffffffffffffffffffff1673ffffffffffffffffffffffffffffffffffffffff16815260200190815260200160002060030154600160008c73ffffffffffffffffffffffffffffffffffffffff1673ffffffffffffffffffffffffffffffffffffffff16815260200190815260200160002060040160009054906101000a900460ff16600160008d73ffffffffffffffffffffffffffffffffffffffff1673ffffffffffffffffffffffffffffffffffffffff16815260200190815260200160002060040160019054906101000a900460ff1695509550955095509550955091939550919395565b6000600160008373ffffffffffffffffffffffffffffffffffffffff1673ffffffffffffffffffffffffffffffffffffffff168152602001908152602001600020600101549050919050565b6000600160008373ffffffffffffffffffffffffffffffffffffffff1673ffffffffffffffffffffffffffffffffffffffff16815260200190815260200160002060040160009054906101000a900460ff169050919050565b6000600160008373ffffffffffffffffffffffffffffffffffffffff1673ffffffffffffffffffffffffffffffffffffffff168152602001908152602001600020600001549050919050565b6000600160008373ffffffffffffffffffffffffffffffffffffffff1673ffffffffffffffffffffffffffffffffffffffff16815260200190815260200160002060040160019054906101000a900460ff169050919050565b600160003373ffffffffffffffffffffffffffffffffffffffff1673ffffffffffffffffffffffffffffffffffffffff16815260200190815260200160002060040160009054906101000a900460ff166109ea576040517f08c379a00000000000000000000000000000000000000000000000000000000081526004016109e190611517565b60405180910390fd5b42600160003373ffffffffffffffffffffffffffffffffffffffff1673ffffffffffffffffffffffffffffffffffffffff168152602001908152602001600020600001541115610a6f576040517f08c379a0000000000000000000000000000000000000000000000000000000008152600401610a6690611583565b60405180910390fd5b42600160003373ffffffffffffffffffffffffffffffffffffffff1673ffffffffffffffffffffffffffffffffffffffff168152602001908152602001600020600101541015610af4576040517f08c379a0000000000000000000000000000000000000000000000000000000008152600401610aeb906115ef565b60405180910390fd5b42600160003373ffffffffffffffffffffffffffffffffffffffff1673ffffffffffffffffffffffffffffffffffffffff1681526020019081526020016000206002018190555060016005610b49919061160f565b600160003373ffffffffffffffffffffffffffffffffffffffff1673ffffffffffffffffffffffffffffffffffffffff168152602001908152602001600020600301541415610d24576000600160003373ffffffffffffffffffffffffffffffffffffffff1673ffffffffffffffffffffffffffffffffffffffff168152602001908152602001600020600001819055506000600160003373ffffffffffffffffffffffffffffffffffffffff1673ffffffffffffffffffffffffffffffffffffffff168152602001908152602001600020600101819055506000600160003373ffffffffffffffffffffffffffffffffffffffff1673ffffffffffffffffffffffffffffffffffffffff16815260200190815260200160002060040160006101000a81548160ff02191690831515021790555060018060003373ffffffffffffffffffffffffffffffffffffffff1673ffffffffffffffffffffffffffffffffffffffff16815260200190815260200160002060040160016101000a81548160ff0219169083151502179055506000600160003373ffffffffffffffffffffffffffffffffffffffff1673ffffffffffffffffffffffffffffffffffffffff16815260200190815260200160002060030181905550610eab565b62015180600160003373ffffffffffffffffffffffffffffffffffffffff1673ffffffffffffffffffffffffffffffffffffffff16815260200190815260200160002060000154610d759190611475565b600160003373ffffffffffffffffffffffffffffffffffffffff1673ffffffffffffffffffffffffffffffffffffffff1681526020019081526020016000206000018190555062015180600160003373ffffffffffffffffffffffffffffffffffffffff1673ffffffffffffffffffffffffffffffffffffffff16815260200190815260200160002060010154610e0c9190611475565b600160003373ffffffffffffffffffffffffffffffffffffffff1673ffffffffffffffffffffffffffffffffffffffff16815260200190815260200160002060010181905550600160003373ffffffffffffffffffffffffffffffffffffffff1673ffffffffffffffffffffffffffffffffffffffff1681526020019081526020016000206003016000815480929190610ea590611643565b91905055505b565b6000600160008373ffffffffffffffffffffffffffffffffffffffff1673ffffffffffffffffffffffffffffffffffffffff168152602001908152602001600020600201549050919050565b600160003373ffffffffffffffffffffffffffffffffffffffff1673ffffffffffffffffffffffffffffffffffffffff16815260200190815260200160002060040160019054906101000a900460ff16610f88576040517f08c379a0000000000000000000000000000000000000000000000000000000008152600401610f7f906116fe565b60405180910390fd5b6000600160003373ffffffffffffffffffffffffffffffffffffffff1673ffffffffffffffffffffffffffffffffffffffff16815260200190815260200160002060040160016101000a81548160ff02191690831515021790555060003373ffffffffffffffffffffffffffffffffffffffff16660aa87bee538000662386f26fc100006110169190611475565b6040516110229061174f565b60006040518083038185875af1925050503d806000811461105f576040519150601f19603f3d011682016040523d82523d6000602084013e611064565b606091505b50509050806110a8576040517f08c379a000000000000000000000000000000000000000000000000000000000815260040161109f906117b0565b60405180910390fd5b50565b6000819050919050565b6110be816110ab565b82525050565b60006020820190506110d960008301846110b5565b92915050565b600080fd5b600073ffffffffffffffffffffffffffffffffffffffff82169050919050565b600061110f826110e4565b9050919050565b61111f81611104565b811461112a57600080fd5b50565b60008135905061113c81611116565b92915050565b600060208284031215611158576111576110df565b5b60006111668482850161112d565b91505092915050565b611178816110ab565b811461118357600080fd5b50565b6000813590506111958161116f565b92915050565b6000602082840312156111b1576111b06110df565b5b60006111bf84828501611186565b91505092915050565b60008115159050919050565b6111dd816111c8565b82525050565b600060c0820190506111f860008301896110b5565b61120560208301886110b5565b61121260408301876110b5565b61121f60608301866110b5565b61122c60808301856111d4565b61123960a08301846111d4565b979650505050505050565b600060208201905061125960008301846111d4565b92915050565b600082825260208201905092915050565b7f596f752063616e2774207769746864726177206465706f736974000000000000600082015250565b60006112a6601a8361125f565b91506112b182611270565b602082019050919050565b600060208201905081810360008301526112d581611299565b9050919050565b7f596f752063616e2774207769746864726177206265666f726520323032332f3160008201527f2f31000000000000000000000000000000000000000000000000000000000000602082015250565b600061133860228361125f565b9150611343826112dc565b604082019050919050565b600060208201905081810360008301526113678161132b565b9050919050565b7f596f75206d757374207265636569766520726577617264206669727374000000600082015250565b60006113a4601d8361125f565b91506113af8261136e565b602082019050919050565b600060208201905081810360008301526113d381611397565b9050919050565b7f496e697469616c204465706f73697420696e76616c6964206572726f72000000600082015250565b6000611410601d8361125f565b915061141b826113da565b602082019050919050565b6000602082019050818103600083015261143f81611403565b9050919050565b7f4e487b7100000000000000000000000000000000000000000000000000000000600052601160045260246000fd5b6000611480826110ab565b915061148b836110ab565b9250827fffffffffffffffffffffffffffffffffffffffffffffffffffffffffffffffff038211156114c0576114bf611446565b5b828201905092915050565b7f596f75206861766520746f206465706f73697420666972737400000000000000600082015250565b600061150160198361125f565b915061150c826114cb565b602082019050919050565b60006020820190508181036000830152611530816114f4565b9050919050565b7f596f752063616e207374696c6c20736c65657000000000000000000000000000600082015250565b600061156d60138361125f565b915061157882611537565b602082019050919050565b6000602082019050818103600083015261159c81611560565b9050919050565b7f596f75206f766572736c6570742e2e2e207265737461727420726f7574696e65600082015250565b60006115d960208361125f565b91506115e4826115a3565b602082019050919050565b60006020820190508181036000830152611608816115cc565b9050919050565b600061161a826110ab565b9150611625836110ab565b92508282101561163857611637611446565b5b828203905092915050565b600061164e826110ab565b91507fffffffffffffffffffffffffffffffffffffffffffffffffffffffffffffffff82141561168157611680611446565b5b600182019050919050565b7f596f75206861766520746f206b6565702077616b696e6720757020666f72203560008201527f6461797300000000000000000000000000000000000000000000000000000000602082015250565b60006116e860248361125f565b91506116f38261168c565b604082019050919050565b60006020820190508181036000830152611717816116db565b9050919050565b600081905092915050565b50565b600061173960008361171e565b915061174482611729565b600082019050919050565b600061175a8261172c565b9150819050919050565b7f576520636f756c646e2774207061792072657761726400000000000000000000600082015250565b600061179a60168361125f565b91506117a582611764565b602082019050919050565b600060208201905081810360008301526117c98161178d565b905091905056fea26469706673582212207d9bbc6bf59113fceab41030e5e19c9f509b729107ff6067599ec9d071572fff64736f6c634300080b0033",
  "immutableReferences": {},
  "source": "// SPDX-License-Identifier: MIT\npragma solidity >=0.8.0;\n\ncontract Wakeup {\n    uint private constant DEPOSIT = 0.01 ether;\n    uint private constant REWARD = 0.003 ether;\n    uint private constant CONT_DAYS_MAX = 5;\n    uint private constant INVALID_WAKUP_TIME = 15 minutes;\n    uint private constant NEXT_INVALID_TIME = 1 days;\n    address private owner;\n\n    constructor () {\n        owner = msg.sender;\n    }\n\n    struct User {\n        uint wakeupTime;\n        uint wakeupTimeTo;\n        uint lastUpdated;\n        uint contDays;\n        bool depositFlag;\n        bool rewardFlag;\n    }\n\n    mapping (address => User) user;\n\n    function setWakeupTime(uint _wakeupTime) public payable {\n        require(user[msg.sender].rewardFlag == false, \"You must receive reward first\");\n        require(msg.value == DEPOSIT, \"Initial Deposit invalid error\");\n        user[msg.sender] = User({\n            lastUpdated: block.timestamp,\n            wakeupTime: _wakeupTime,\n            wakeupTimeTo: _wakeupTime + INVALID_WAKUP_TIME,\n            contDays: 0,\n            depositFlag: true,\n            rewardFlag: false\n        });\n    }\n\n    function incrementContDays() public {\n        require(user[msg.sender].depositFlag, \"You have to deposit first\");\n        require(user[msg.sender].wakeupTime <= block.timestamp, \"You can still sleep\");\n        require(user[msg.sender].wakeupTimeTo >= block.timestamp, \"You overslept... restart routine\");\n        user[msg.sender].lastUpdated = block.timestamp;\n        if (user[msg.sender].contDays == (CONT_DAYS_MAX-1)) {\n            user[msg.sender].wakeupTime = 0;\n            user[msg.sender].wakeupTimeTo = 0;\n            user[msg.sender].depositFlag = false;\n            user[msg.sender].rewardFlag = true;\n            user[msg.sender].contDays = 0;\n        } else {\n            user[msg.sender].wakeupTime = user[msg.sender].wakeupTime + NEXT_INVALID_TIME;\n            user[msg.sender].wakeupTimeTo = user[msg.sender].wakeupTimeTo + NEXT_INVALID_TIME;\n            user[msg.sender].contDays++;\n        }\n    }\n\n    function receiveReward() public {\n        require(user[msg.sender].rewardFlag, \"You have to keep waking up for 5days\");\n        user[msg.sender].rewardFlag = false;\n        (bool success,) = payable(msg.sender).call{value: DEPOSIT + REWARD}(\"\");\n        require(success, \"We couldn't pay reward\");\n    }\n\n    function withdraw() external {\n        require(msg.sender == owner, \"You can't withdraw deposit\");\n        require(block.timestamp >= 1672531200, \"You can't withdraw before 2023/1/1\");\n        payable(owner).transfer(address(this).balance);\n    }\n\n    function getBalance() public view returns (uint) {\n        return address(this).balance;\n    }\n\n    function getUserInfo (address _user) public view returns (uint, uint, uint, uint, bool, bool) {\n        return (user[_user].wakeupTime, user[_user].wakeupTimeTo, user[_user].lastUpdated, user[_user].contDays, user[_user].depositFlag, user[_user].rewardFlag);\n    }\n\n    function getWakeupTime(address _owner) public view returns (uint) {\n        return user[_owner].wakeupTime;\n    }\n\n    function getWakeupTimeTo(address _owner) public view returns (uint) {\n        return user[_owner].wakeupTimeTo;\n    }\n\n    function getLastUpdated(address _owner) public view returns (uint) {\n        return user[_owner].lastUpdated;\n    }\n    \n    function getContDays(address _owner) public view returns (uint) {\n        return user[_owner].contDays;\n    }\n\n    function getDepositFlag(address _owner) public view returns (bool) {\n        return user[_owner].depositFlag;\n    }\n\n    function getRewardFlag(address _owner) public view returns (bool) {\n        return user[_owner].rewardFlag;\n    }\n}",
  "sourcePath": "/Users/shoyu/repository/wakeup-dapp/contracts/wakeup.sol",
  "compiler": {
    "name": "solc",
    "version": "0.8.11+commit.d7f03943.Emscripten.clang"
  },
  "schemaVersion": "3.4.5",
  "updatedAt": "2022-04-17T00:37:24.350Z",
  "networkType": "ethereum",
  "devdoc": {
    "kind": "dev",
    "methods": {},
    "version": 1
  },
  "userdoc": {
    "kind": "user",
    "methods": {},
    "version": 1
  }
}